:10028D0020202030313233343536373839200020B4
:10029D0020204142434445444748494A2000C0F983
:1002AD00A4B0999282F880908883C6A1868EFEFDB7
:1002BD00FBF7C0F9A4B0999282F880904079243070
:1002CD0019120278001048656C6C6F204D43552053
:1002DD00574F524C4420004C45542753204245471C
:1002ED00494E4E494E4720003132332A0A2A2034D6
:1002FD003536202A0A2A202037383920202A0A2A82
:10030D0000D4D4BED49FA9D4D4BED48E9FD4D46AE5
:10031D007E9FA9BE77777E9F8E9F0009030C0C0CE4
:10032D001809030C0C0C1809030C0C0C0C0C09030C
:05033D000C0C0C18007F
:0609A400044A00000000FF
:10093000AD071FED600BE4FEEEC394FA50F20E809B
:01094000F7BF
:010941002293
:1008A100758922E4F58CF58AD2AFD2A9D28CD2888F
:0708B100D2A8D28ED29E22D4
:03000B00020006EA
:0300060005493277
:03000300020602F0
:09060200C0E0C0D075D000C000BA
:10060B00300029E549C39435500AE549C39420408D
:10061B000375210074242521F8A64975490005218D
:10062B00E521B4210CD2027521008005754900D259
:01063B0000BE
:07063C00D000D0D0D0E03265
:10094200E54E9002BF93F580C2A37F05120930D213
:02095200A322DE
:100643007E01E4FDE4FC74242EF8E6D39405400314
:10065300430780ECC394075004EFC313FF0E0CBC95
:1006630008E474452DF8A607E4FF0DBD04D6D201B6
:010673002264
:100441001208A1300261120643C202300159E54788
:10045100120267048A08047B0C04761604801804CF
:100461008F1C04994204A34A049E5204945A0485A1
:100471005E000004A6E4F54E802B754E01802675C2
:100481004E028021754E03801C754E048017754EF7
:10049100058012754E06800D754E078008754E0851
:0C04A1008003754E09C2011209428097C9
:10083A007590FF7F207E4E12084BE4F5907F207E54
:01084A004E5F
:0A084B00EF1F70011E144E70F7221B
:1007B50075907F120847E4FDFCE590C313120845C8
:1007C5000DBD00010CED64074C70EE12083A1208DD
:0407D5003A7590FFE2
:0107D90022FD
:10056800D2A5E4FCC3EC648094905039E4FDC3ED5B
:100578006480948450EEEDFF3395E0FE74BB2FF554
:100588008274023EF583E493F5A0ECFF3395E0FE18
:1005980074AB2FF58274023EF583E493F5800C1258
:1005A80008470D80C975A0F07580FF120847E4F56B
:0705B800801208477580FF67
:0105BF002219
:06067400E493F5807F0114
:02067A00AD07CA
:10067C00E4FCC3ED6480F8EC6480985015C2A47F50
:10068C00287E2312084BD2A47F287E2312084B0C01
:02069C0080E0FC
:01069E002239
:1008E40020B20D7FD07E0712084B20B2037F012275
:0308F4007F002260
:1008F70020B30D7FD07E0712084B20B3037F012260
:030907007F00224C
:10090A0020B40D7FD07E0712084B20B4037F01224A
:03091A007F002239
:10091D0020B50D7FD07E0712084B20B5037F012235
:03092D007F002226
:10078F00C2AFE4FFFE74F52FF58274023EF583E4E9
:10079F0093F5993099FDC2990FBF00010EEF6419BF
:0507AF004E70E2D2AF24
:0107B4002222
:0300230002069F33
:0F069F00C0E0C083C082C0D075D000C006C007C5
:0E06AE00C2AFC298AF99BF800312078FD2AFC0
:0D06BC00D007D006D0D0D082D083D0E0325D
:10081D00E4FFFEE4FDFC0DBD00010CED64154C7014
:0C082D00F50FBF00010EEF64654E70E790
:01083900229C
:100965008F80C2A6C2B6C2A712081DD2A702081D53
:100975008F80D2A6C2B6C2A712081DD2A702081D33
:10086F007F011209657F381209657F0C1209657FB8
:09087F00061209657FD00209652B
:02088800AE07B9
:10088A00BE01027A80BE02027AC0EA2D14FAFF1271
:07089A000965AF03020975B7
:1006C900BF0103750980BF02037509C0E5092D142F
:1006D900F509FF1209651201EBFF600C1209757427
:0806E9000129F9E43AFA80EE60
:0106F10022E6
:10071A0075083012086F7B627D057F011208887B9D
:10072A00FF7A02798D7D017F011206C97A02799CCE
:07073A007D017F020206C9E8
:10098500D2AF758910758B0C758DFEC28ED2AB22D8
:03001B0002000ED2
:0B000E00C28E758DFE758B0CB2A43203
:070954001208557F507E00E0
:0A095B00EF1F70011E144E70F7220A
:0808B8009002BF93F5807F144C
:0D08C000EFD3940040077E14DEFE1F80F38E
:0108CD002208
:1006F200E4FDD2B77F04FE12095BC2B77F3C7E00E5
:1007020012095BD2B77F0E7E0012095BA2B7E433F7
:08071200FD7F147E0002095B6B
:1007FF00E4FC7D08C2B7ECC313FCD2B730B7034398
:0D080F0004807F047E0012095BDDE9AF0468
:01081C0022B9
:02085500AD07ED
:100857007B08C2B7ED1392B77F057E0012095BD202
:07086700B7EDC313FDDBEB4D
:01086E002267
:1005C0001206F27FCC1208557F441209541206F22B
:1005D0007FCC1208557FBE1209541207FFAB0712D9
:1005E00007FFEFFE7C00E42BFDEC3EFCE412013142
:1005F000E4FBFA79C8784012002612016A8E228F35
:0106000023D6
:0106010022D6
:10050E00AB07AA067C037DE81202048F4A7C037DAA
:10051E00E8AF03AE021202047E007F64CFCDCFCED1
:10052E00CCCE1202048F4B7C007D64AF03AE021260
:10053E0002047E007F0ACFCDCFCECCCE1202048F26
:10054E004CAE02AF037C007D0A1202048D4D854D28
:0A055E000DAB4CAD4BAF4A0207DABB
:1007DA0075A0FEEF1208B875A0FDED9002C91208C7
:1007EA00BB75A0FBEB1208B875A0F7E50D93F58071
:0507FA007F140208C09D
:100741007C007D64120204C3EF941EEE94005004F9
:100751007590DF22C3EF941FEE940050047590BF93
:070761002275907FD28E2269
:100768001209851205C08E088F0912050EAF09AE51
:100778000812074112091DEF700C1208F7EF7006F6
:060788001208E4EF60DD41
:01078E002248
:1008CE00EF1FAA0670011E4A600BE4FDEDC394787B
:0508DE0050EE0D80F753
:0108E30022F2
:1003CE00E4F508F509AF09EF900328937007EF9055
:1003DE00030E93605DE4FDFCE5099003289375F030
:1003EE0014A4FFC3ED9FEC95F05026B2A4E4FFFEDB
:1003FE00E50990030E9375F00384FBC3EF9BEE9417
:10040E000050070FBF00010E80E60DBD00010C80ED
:10041E00C77F0A7E001208CE0509E509700205089D
:10042E0012091DEF700C12090AEF70061208E4EFA4
:02043E006093C9
:010440002299
:0F099500C2A41203CE7F2C7E011208CED2A42260
:1004AD001207B512071A1205687F0212067A120793
:1004BD008F7580BF1208E4EF60089002AC120674CD
:1004CD0080F21208F7EF600B9002AD12067412095C
:1004DD009580E112090AEF600B9002AE12067412BC
:1004ED00076880D012091DEF60CA7590FE9002AFAB
:1004FD00E493F58075A0FF7F0112067A1204418006
:01050D00B33A
:10002600EC4D6011E8497017ED33EC3304600DE4D4
:10003600FCFFFEFD22E933E8330470F80201D61214
:1000460001A158046009E4CC248150062850090215
:1000560001E02840030201DDC0E0EB4A7044B980AC
:1000660006D0E0FB0201CCEF4E701CBD8008EBFF12
:10007600EAFEE9FD80EBE98DF0A4FEE5F002010F52
:10008600E9CDF9EAFEEBFFEF89F0A4FCE5F0CE89B5
:10009600F0A42EFFE435F0CD89F0A42DFEE435F072
:1000A6008067EF4E7005BD80D780C3EF8BF0A4ACA0
:1000B600F0EE8BF0A42CFCE435F0F8EF8AF0A42CDB
:1000C600E5F038FCE433CB8DF0A42CFCE5F03BF8EE
:1000D600EE8AF0A42CFCE5F038F8E433CF89F0A4DE
:1000E6002CFCE5F038CF3400CE89F0A42FFFE5F0E4
:1000F6003EFEE433C98DF0A42EFEE5F039CD8AF03C
:10010600A42FFFE5F03EFEE43DFD33D0E0FB5007B3
:100116000BBB000F0201E0EC2CFCEF33FFEE33FECD
:06012600ED33FD0201B8FB
:10012C0075F020800E75F010800575F0087D007E4E
:10013C00007F003392D530D503120259EC334010B6
:10014C00EF33FFEE33FEED33FDEC33FCD5F0ED2257
:0E015C00E5F0247EA2D513CC92E7CDCEFF2293
:10016A00EDD2E7CD33EC3392D524814006E4FFFE8D
:10017A00FDFC22FCE4CFCECDCC24E0501174FF80EC
:10018A00EDC3CC13CCCD13CDCE13CECF13CF047089
:07019A00F030D5DE0202592E
:1001A100E9D2E7C933E833F892D5EDD2E7CD33ECA4
:0701B10033FC5002B2D5221D
:1001B800EC30E7100FBF000C0EBE00080DBD0004A8
:1001C8000BEB6014A2D5EB13FCED92E7FD2274FF54
:1001D800FCFDFEFF22E480F8A2D574FF13FC7D80AD
:0301E800E480EFC1
:03000000020342B6
:0C034200787FE4F6D8FD75815002038935
:1001EB00BB010689828A83E0225002E722BBFE0212
:0901FB00E32289828A83E4932245
:10020400BC000BBE0029EF8DF084FFADF022E4CCDE
:10021400F875F008EF2FFFEE33FEEC33FCEE9DECA7
:10022400984005FCEE9DFE0FD5F0E9E4CEFD22EDED
:10023400F8F5F0EE8420D21CFEADF075F008EF2F37
:10024400FFED33FD4007985006D5F0F222C398FD28
:050254000FD5F0EA22C5
:0E025900C3E49FFFE49EFEE49DFDE49CFC22B6
:10026700D083D082F8E4937012740193700DA3A326
:1002770093F8740193F5828883E47374029368603A
:06028700EFA3A3A380DF3A
:10034E000204ADE493A3F8E493A34003F68001F214
:10035E0008DFF48029E493A3F85407240CC8C333B0
:10036E00C4540F4420C8834004F456800146F6DF7F
:10037E00E4800B01020408102040809009A4E47E62
:10038E00019360BCA3FF543F30E509541FFEE49374
:10039E00A360010ECF54C025E060A840B8E493A33B
:1003AE00FAE493A3F8E493A3C8C582C8CAC583CA66
:1003BE00F0A3C8C582C8CAC583CADFE9DEE780BE1E
:0109AA00004C
:00000001FF
